:020000040800F2
:1000000060140120D50F0008910E0008930E00081F
:10001000970E00089B0E00089F0E000800000000CD
:10002000000000000000000000000000A30E000817
:10003000A50E000800000000A70E0008A90E000889
:10004000EF0F0008EF0F0008EF0F0008EF0F000898
:10005000EF0F0008EF0F0008EF0F0008EF0F000888
:10006000EF0F0008EF0F0008EF0F0008EF0F000878
:10007000EF0F0008EF0F0008EF0F0008EF0F000868
:10008000EF0F0008EF0F0008EF0F0008EF0F000858
:10009000EF0F0008EF0F0008EF0F0008EF0F000848
:1000A000EF0F0008EF0F0008EF0F0008EF0F000838
:1000B000EF0F0008EF0F0008EF0F0008EF0F000828
:1000C000EF0F0008EF0F0008EF0F0008EF0F000818
:1000D000EF0F0008D5020008EF0F0008EF0F00082F
:1000E000EF0F0008EF0F0008EF0F0008EF0F0008F8
:1000F000EF0F0008EF0F0008EF0F0008EF0F0008E8
:10010000EF0F0008EF0F0008EF0F0008EF0F0008D7
:10011000EF0F0008EF0F0008EF0F0008EF0F0008C7
:10012000EF0F0008EF0F0008EF0F0008EF0F0008B7
:10013000EF0F0008EF0F0008EF0F0008EF0F0008A7
:10014000EF0F0008EF0F0008EF0F0008EF0F000897
:10015000EF0F0008EF0F0008EF0F0008EF0F000887
:10016000EF0F0008EF0F0008EF0F0008EF0F000877
:10017000EF0F0008EF0F0008EF0F0008000000006D
:10018000EF0F0008EF0F000800F002F800F092F8FF
:100190000AA090E8000C82448344AAF10107DA45E2
:1001A00001D100F087F8AFF2090EBAE80F0013F0A2
:1001B000010F18BFFB1A43F001031847104D06004A
:1001C000304D0600103A24BF78C878C1FAD85207DB
:1001D00024BF30C830C144BF04680C6070470000C1
:1001E0000023002400250026103A28BF78C1FBD840
:1001F000520728BF30C148BF0B6070476E2919F005
:100200008DA1702919F0EDA266291AF030A4652994
:100210001AF02DA467291AF02AA461291AF029A43A
:1002200003681B0A28BF41F08001692918F0DAA68B
:10023000642918F0D7A6752918F0D4A66F2919F0EB
:100240007AA2782919F0B9A2E92919F015A2E429AE
:1002500019F012A2F52919F00FA2EF2919F077A2CF
:10026000F82919F0B8A20368DB0928BF41F0800122
:10027000632919F096A1732919F09BA1E32919F0BC
:10028000B9A6F32919F0BEA6002070471FB55AF091
:10029000E9FB59F009FF0400002000215AF0CCFBD3
:1002A000401C6060002000215AF0B0FBE0601FBDE0
:1002B00010B510BD59F0CAFE1146FFF7E7FF00F078
:1002C000DDFB59F0A7FF03B4FFF7F2FF03BC59F0C1
:1002D000AFFF000010B5CB4806F04BF810BD70B56D
:1002E0008AB00546C8492868884278D10120C749A4
:1002F0000870C748007802F01BFCC54800780D283C
:1003000003D0C34800780A286AD1C2480078002880
:1003100067DD0020C049BF4A12788854BFA1BE489B
:1003200059F04EF8D0B9BFA002F00BFC002412E047
:10033000C248005D08B1C2A000E0C2A00090C2485F
:1003400050F82430C1A2202102A858F0DFFD02A8F5
:1003500002F0F7FB641C032CEADB69E3BEA1AE48A4
:1003600059F02EF838B90121002002F097FCBDA009
:1003700002F0E7FB5CE3C0A1A74859F021F838B9C7
:100380000021084602F08AFCBEA002F0DAFB4FE32F
:10039000C1A1A14859F014F838B90121084602F06A
:1003A0007DFCBFA002F0CDFB42E3C1A19A4859F009
:1003B00007F838B90021012002F070FCBEA002F05D
:1003C000C0FB35E3C1A1944858F0FAFF50B90121B0
:1003D000022002F063FCC0A002F0B3FB28E33EE37E
:1003E0002AE328E3C1A18C4858F0EAFF38B900217C
:1003F000022002F053FCC0A002F0A3FB18E3C3A14B
:10040000854858F0DDFF38B90121002002F040FC9A
:10041000C2A002F096FB0BE3C6A17F4858F0D0FFC4
:1004200038B90221002002F033FCC6A002F089FB9B
:10043000FEE2CBA1784858F0C3FF38B90321002071
:1004400002F026FCCAA002F07CFBF1E2CEA17248C9
:1004500058F0B6FF38B90421002002F019FCCEA0F4
:1004600002F06FFBE4E2D2A16B4858F0A9FF38B963
:100470000121084602F00CFCD0A002F062FBD7E29A
:10048000D4A1654858F09CFF38B90221012002F040
:10049000FFFBD3A002F055FBCAE2D7A15E4858F09B
:1004A0008FFF38B90321012002F0F2FBD5A002F042
:1004B00048FBBDE2D8A1584858F082FF38B9042162
:1004C000012002F0E5FBD7A002F03BFBB0E2DBA18C
:1004D000514858F075FF38B90121022002F0D8FBCD
:1004E000DAA002F02EFBA3E2DEA14B4858F068FF31
:1004F00038B90221084602F0CBFBDEA002F021FB56
:1005000096E2E3A1444858F05BFF38B9032102208A
:1005100002F0BEFBE2A002F014FB89E2E6A13E4835
:1005200058F04EFF38B90421022002F0B1FBE6A0DA
:1005300002F007FB7CE2EAA1374858F041FF10B90E
:1005400002F0B1FB74E2E8A1334858F039FF28B952
:1005500002F0EFFBE6A002F0F4FA69E20522E8A15E
:100560002D4858F05EFE002840D12B4E761DE6A1A6
:10057000304658F025FF10B902F0DCFF35E0E3A16A
:10058000304658F01DFF70B9002406E02346E1A272
:100590000321022002F003FB641C052CF6DBE1A022
:1005A00002F0CFFA21E0E5A1304658F009FF70B91A
:1005B000002406E02346E4A20321022002F0EFFA21
:1005C000641C462CF6DBE3A002F0BBFA0DE0C6A1EA
:1005D000304658F0F5FE28B902F0ABFBE4A002F07B
:1005E000B0FA02E0E8A002F0ACFA21E2F4A10A4875
:1005F00058F0E6FE002803D1F3A002F0A2FAEFE1E2
:1006000013E20000700100200010014001000020F2
:100610000000002002000020E0000020535441545C
:10062000555300000D0A2D2D2D204C6F672053745B
:1006300061747573202D2D2D0D0A000064000020BB
:100640004F4E00004F4646004400002025733A20DC
:1006500025730D0A00000000544F554348204F4EAB
:10066000000000000D0A546F756368206C6F673AD4
:10067000204F4E0D0A000000544F554348204F466E
:10068000460000000D0A546F756368206C6F673A6E
:10069000204F46460D0A00004C4344204F4E0000B8
:1006A0000D0A4C4344206C6F673A204F4E0D0A00F0
:1006B0004C4344204F4646000D0A4C4344206C6F87
:1006C000673A204F46460D0A000000005359535424
:1006D000454D204F4E0000000D0A53797374656D2F
:1006E000206C6F673A204F4E0D0A00005359535447
:1006F000454D204F464600000D0A53797374656DD1
:10070000206C6F673A204F46460D0A004C4556450F
:100710004C20544F55434820310000000D0A546FBF
:10072000756368206C6576656C3A204552524F526D
:100730000D0A00004C4556454C20544F5543482067
:10074000320000000D0A546F756368206C65766591
:100750006C3A205741524E494E470D0A00000000A6
:100760004C4556454C20544F55434820330000001B
:100770000D0A546F756368206C6576656C3A204984
:100780004E464F0D0A0000004C4556454C20544F34
:1007900055434820340000000D0A546F75636820EB
:1007A0006C6576656C3A2044454255470D0A000059
:1007B0004C4556454C204C43442031000D0A4C43D7
:1007C00044206C6576656C3A204552524F520D0AB2
:1007D000000000004C4556454C204C43442032005C
:1007E0000D0A4C4344206C6576656C3A20574152A3
:1007F0004E494E470D0A00004C4556454C204C438F
:10080000442033000D0A4C4344206C6576656C3AF5
:1008100020494E464F0D0A004C4556454C204C434E
:10082000442034000D0A4C4344206C6576656C3AD4
:100830002044454255470D0A000000004C455645EE
:100840004C2053595354454D203100000D0A537923
:100850007374656D206C6576656C3A204552524F15
:10086000520D0A004C4556454C2053595354454DA2
:10087000203200000D0A53797374656D206C657623
:10088000656C3A205741524E494E470D0A00000010
:100890004C4556454C2053595354454D2033000088
:1008A0000D0A53797374656D206C6576656C3A201A
:1008B000494E464F0D0A00004C4556454C205359B1
:1008C0005354454D203400000D0A53797374656DFF
:1008D000206C6576656C3A2044454255470D0A0008
:1008E00044554D5000000000434C4541520000006B
:1008F0000D0A4C6F6720636C65617265640D0A00B8
:10090000544553542000000052554E00575249544C
:100910004500000054657374207772697465202562
:10092000640000000D0A5465737420777269746561
:1009300020636F6D706C6574650D0A004F564552EB
:10094000464C4F57000000004F766572666C6F771B
:10095000202564000D0A54657374206F76657266F5
:100960006C6F7720636F6D706C6574650D0A0000A5
:100970000D0A54657374206C6F6720636C65617237
:1009800065640D0A000000000D0A556E6B6E6F77EE
:100990006E205445535420636F6D6D616E642E203C
:1009A0005573653A2052554E2F57524954452F4F93
:1009B000564552464C4F572F434C4541520D0A0065
:1009C00048454C50000000000D0A2D2D2D20436F8E
:1009D0006D6D616E6473202D2D2D0D0A00000000D9
:1009E00086A002F0AEF88EA002F0ABF898A002F05C
:1009F000A8F8A2A002F0A5F8ACA002F0A2F8B4A05A
:100A000002F09FF8BBA002F09CF8C4A002F099F895
:100A1000CBA002F096F8D3A002F093F8DCA002F08D
:100A200090F8E4A002F08DF802E0EBA002F089F863
:100A30000020F14908700DE0EF4800783F2809D206
:100A4000EE480178EC4802780078401CEA4B1870B8
:100A5000EB4881540122E949EA4804F0E3FF0AB077
:100A600070BD10B504460020E7490860642006F018
:100A700006FB0120E549C1F88C0210BD08B502F063
:100A80004AFE0723022208214FF4A87006F065FAF7
:100A900006F0CBFA00F0BEFA00F006FB00F02CFBEB
:100AA00002F032F8642006F0EAFA0122D349D54870
:100AB00004F0B8FF02F05CF8D5A20321022002F096
:100AC0006EF800F0B4FED7A20321022002F067F80E
:100AD00001F0B8FCD7A20321022002F060F806F072
:100AE0008CFB06F071FB06F06AFB06F00DFB06F0CE
:100AF0004DFBD5A20321022002F051F86FF07F4098
:100B000036F05CF8009013F0C2FE07460022009910
:100B10000EF0E8FF13F0BBFE07460022FF210EF0A7
:100B2000F5FF13F0B4FE07464BF0ACFB064676B17A
:100B3000CAA130464CF0A8F80022CC4930460FF04C
:100B400049FA0A230022022130460BF033F913F050
:100B50009EFE074644F044FE0446F4B1322278215A
:100B600020460AF0E6FD6FF0270300220921204607
:100B70000BF020F900230A22BD49204609F076FB3C
:100B800020464BF07FFB074637B1BAA138464CF000
:100B90007BF838460BF07FFD00BF13F078FE074668
:100BA00044F01EFE0546EDB13222782128460AF0B7
:100BB000C0FD28230022092128460BF0FBF8002362
:100BC0000A22AB49284609F051FB28464BF05AFB54
:100BD000074637B1AAA138464CF056F838460BF014
:100BE0005AFD00BF002012F0E1F905E000BF3AF025
:100BF00073FB052006F043FAF8E700005354415414
:100C00005553202020202020202020202D205368F4
:100C10006F77206C6F67207374617475730D0A00B1
:100C2000544F554348204F4E2F4F464620202020FA
:100C30002D20456E61626C652F64697361626C651D
:100C400020746F756368206C6F670D0A00000000E8
:100C50004C4344204F4E2F4F46462020202020203A
:100C60002D20456E61626C652F64697361626C65ED
:100C7000204C4344206C6F670D0A000053595354B5
:100C8000454D204F4E2F4F46462020202D20456EAB
:100C900061626C652F64697361626C65207379733E
:100CA00074656D206C6F670D0A0000004C45564559
:100CB0004C203C4D4F443E203C312D343E202D20D5
:100CC000536574206C6F67206C6576656C0D0A0047
:100CD00044554D502020202020202020202020205E
:100CE0002D2044756D7020616C6C206C6F67730DE6
:100CF0000A000000434C45415220202020202020A3
:100D0000202020202D20436C656172206C6F6720AD
:100D10006275666665720D0A000000005445535402
:100D20002052554E20202020202020202D2052759A
:100D30006E20616C6C2074657374730D0A00000082
:100D400054455354205752495445202020202020F8
:100D50002D2054657374206C6F67207772697465F9
:100D60000D0A000054455354204F564552464C4FEF
:100D7000572020202D2054657374206275666665A7
:100D800072206F766572666C6F770D0A0000000046
:100D90005445535420434C454152202020202020CC
:100DA0002D20436C6561722074657374206C6F67CD
:100DB000730D0A0048454C50202020202020202080
:100DC000202020202D2053686F77207468697320BD
:100DD00068656C700D0A00000D0A556E6B6E6F77BA
:100DE0006E20636F6D6D616E642E20547970652086
:100DF00048454C502E0D0A00020000200000002043
:100E0000E0000020700100208C02424200004242BB
:100E100053797374656D207374617274696E672E93
:100E20002E2E00004C434420696E697469616C6920
:100E30007A656400546F75636820696E69746961CE
:100E40006C697A65640000004C56474C20696E69F5
:100E50007469616C697A6564000000004C56474C07
:100E600020496D6167652044656D6F00903A060802
:100E7000630A0008EF809520486F6D650000000050
:100E8000EF80932053657474696E677300000000EF
:100E9000704700BFFEE700BFFEE700BFFEE700BFF0
:100EA000FEE770477047704710B502F06BFC10BD4D
:100EB0003F48006840F470003D4908603D480068C4
:100EC00040F001003B49086000203A4908310860C1
:100ED0003848006838490840364908603748091DD5
:100EE0000860081F006820F48020091F08600020A7
:100EF00030490C3108604FF000602D49803908609E
:100F0000704770B500200022022300240221294DE1
:100F100008352D6805F00C0020B1042806D00828FB
:100F200034D107E0264D274E356033E0264D254E5F
:100F300035602FE01F4D2D1D2D68C5F380541D4DCC
:100F40002D1D2D6805F03F0154B11F4DB5FBF1F586
:100F5000184E361D3668C6F3881605FB06F209E002
:100F6000174DB5FBF1F5134E361D3668C6F38816DE
:100F700005FB06F20F4D2D1D2D68C5F301456D1CB7
:100F80006B00B2FBF3F50F4E356003E00C4D0D4ED8
:100F9000356000BF00BF074D08352D68C5F3031548
:100FA0000A4E705D074D2D68C540064E356070BD18
:100FB00088ED00E000380240FFFFF6FE103000240C
:100FC0000024F4000400002000127A0076AA05082C
:100FD000704770470948804709480047FEE7FEE729
:100FE000FEE7FEE7FEE7FEE7FEE7FEE7FEE7FEE7D9
:100FF00004480549054A064B70470000B10E000839
:1010000089010008600E0120601401206010012099
:101010006010012000B587B000BF002001901F487C
:10102000006840F010001D4908600846006800F0A4
:101030001000019000BF00BF00BF002001900846D3
:10104000006840F0400008600846006800F040007A
:10105000019000BF00BF182002900120039004906F
:101060000320059002A90E4802F016FE4FF400700E
:10107000029002A90B4802F00FFE01220821084845
:1010800002F099FF01221021054802F094FF01228D
:101090005102044802F08FFF07B000BD3038024013
:1010A000001002400018024000B587B000BF0020C9
:1010B00001900F48006840F040000D490860084664
:1010C000006800F04000019000BF00BF8020029047
:1010D0000120039004900320059002A9054802F026
:1010E000DBFD00228021034802F065FF07B000BD50
:1010F000303802400018024000B587B000BF002021
:1011000001903E48006840F020003C4908600846D5
:10111000006800F02000019000BF00BF4FF4707025
:10112000029000200390012004900320059002A962
:10113000334802F0B1FD07B000BD0021314A117003
:101140003149096861B13049091F096841B12E4927
:101150000839096821B12C490C39096800293CD1AA
:101160002949096819B90121284A117016E0264950
:10117000091F096819B90221244A11700EE0224999
:101180000839096819B90321204A117006E01E497F
:101190000C39096811B904211C4A11701B490978DE
:1011A0001B4A1278914210D11A490988491C194AE0
:1011B000118016490978184A1170E8B9154909884B
:1011C000012919DD0021117016E00021114A11805A
:1011D0000E4909780E4A11700EE00E49098802295D
:1011E00003DD0A490978074A11700021084A117085
:1011F000084A1180084A11707047000030380240D8
:101200000014024009000020248242420C00002009
:101210000D0000200A00002008000020F64A10807F
:10122000921C1180704710B50446F34804800420D6
:1012300005F003FFF048801C008810BD00BF011EB0
:10124000A0F10102D0B2FAD17047EC480088EA4917
:10125000088070472920E849088070472820E6491F
:101260000880704730B58418641EA2B2CC18641E82
:10127000A3B2E34C24786CBBE24C248841F663159E
:10128000AC4227D1E04C2488A41A241AA0B2CC186E
:10129000641EA3B2DD4C2488D74D2C800412AD1CF3
:1012A0002C80C4B22C808418641EC4F30F242C80BC
:1012B0008418641EE4B22C80D54C2488AD1E2C808A
:1012C0000C12AD1C2C80CCB22C801C122C80DCB2F9
:1012D0002C8019E0CD4C2488C74D2C800412AD1C05
:1012E0002C80C4B22C8014122C80D4B22C80C84C18
:1012F0002488AD1E2C800C12AD1C2C80CCB22C800E
:101300001C122C80DCB22C8030BD70B50546002448
:101310000026BB480078012805D1BA48008849F268
:101320004131884208D0B6480078F0B9B548008805
:1013300041F66311884218D1082D15D2DFE805F077
:101340000406080A0C0E101206250DE007250BE016
:10135000042509E0052507E0012505E0002503E057
:10136000032501E0022500BF00BF082D1CD2DFE8E5
:1013700005F00406090C0F12151800BF14E044F024
:10138000800411E044F040040EE044F0C0040BE09F
:1013900044F0200408E044F0600405E044F0A004B8
:1013A00002E044F0E00400BF00BF36269548008804
:1013B00049F24131884201D144F0080421463046C7
:1013C000FFF72CFF934803888F48028800210846C6
:1013D000FFF748FF70BD10B504468CBB002088495C
:1013E00008708848008849F24131884210D12C2089
:1013F000824908802A20854908802B20844908805A
:10140000F020814908804FF4A0708249088049E0AB
:101410007C48008841F66311884243D12C207749EB
:1014200008802B20794908802A20794908804FF4C8
:10143000F070754908804FF448707649088031E0B3
:10144000FFE701206E4908706E48008849F241317B
:10145000884210D12C20694908802A206B490880D5
:101460002B206B4908804FF4A07067490880F0205A
:101470006849088016E06348008841F66311884295
:1014800010D12C205D4908802A20604908802B203B
:101490005F4908804FF448705B4908804FF4F07052
:1014A0005C4908800020FFF730FF10BD554A1288C4
:1014B00049F241339A4212D1544A12884E4B1A8053
:1014C00002129B1C1A80C2B21A80514A12889B1EBB
:1014D0001A800A129B1C1A80CAB21A8042E0494A3A
:1014E000128841F663139A423CD1454A12788AB970
:1014F000454A1288521E121A90B2444A12883E4B34
:101500001A8000229B1C1A801A8002121A80C2B212
:101510001A8013E03D4A1288374B1A8002129B1C36
:101520001A80C2B21A80384A1288521EC2F30F22A1
:101530001A80354A1278521ED2B21A80344A128862
:101540002D4B1A800A129B1C1A80CAB21A80314A8B
:101550001288521EC2F30F221A802E4A1278521E8F
:10156000D2B21A8070473EB504460D460020029064
:101570000190009029462046FFF798FF2E201E4933
:101580000880881C008802901E48008841F663117C
:10159000884202D1BDF808003EBD0220FFF74EFE92
:1015A0001548801C00880090BDF80800C0B201906A
:1015B000BDF804004FF6FF7101EA00200190BDF86C
:1015C0000800C012C002BDF80410891240EA4110A0
:1015D000BDF8001040EAE120DEE730B504460D46D4
:1015E00029462046FFF762FFFFF72FFE0A480088D2
:1015F0000149891C088030BDFE1F006C1A000020C4
:101600001400002012000020160000201C00002002
:101610001E000020180000200E00002070B50546B6
:101620000E46144631462846FFF7D7FFFE4800888D
:10163000FE490880881C048070BDBE21FB4A1180D1
:101640000521921C11801146088001211180FF2183
:101650001180002111801180704770B5044600256B
:101660000026F3480088F349098800FB01F60021B1
:101670000846FFF71BFFFFF7E8FD00BF03E0EB485C
:10168000801C04806D1CB542F9D370BD10B586B0C6
:10169000044600BF00200090E748006840F00100C9
:1016A000E54908600846006800F00100009000BFAE
:1016B00000BF00BF00200090DF480838006840F0FD
:1016C0000800DD49083908600846006800F0080095
:1016D000009000BF00BF00BF0020009008460068D7
:1016E00040F0100008600846006800F0100000900C
:1016F00000BF00BF00BF002000900846006840F017
:10170000200008600846006800F02000009000BF3C
:1017100000BF00BF002000900846006840F0400075
:1017200008600846006800F04000009000BF00BF5D
:101730004CF23370019002200290012003900320AC
:1017400004900C20059001A9BC4802F0A5FA4FF6C0
:101750008070019001A9BA4802F09EFA042001901D
:1017600001A9B84802F098FA4FF48050019001A9FD
:10177000B44802F091FA06B010BD00B58FB04FF03A
:101780002040B1490860B1484860062088600021C7
:10179000AD48C16001611021416100218161C161D9
:1017A00041624FF4805181620021C1624FF4804157
:1017B00001630021416381634FF48011C1630F20F5
:1017C0000890002009903C200A9000200E90049080
:1017D000092001900020029008200390002007902B
:1017E00001AA08A9984805F0E8F8322005F047FC5E
:1017F0000FB000BDD3218D4A1180911C0888088844
:1018000008884FF6FF7101EA0020911C09880843FF
:101810007047A121854A1180911C088808884FF6DD
:10182000FF7101EA0020911C09880843704700B548
:1018300087B000BF002001907F480838006840F062
:1018400020007D49083908600846006800F0200043
:10185000019000BF00BF0815029001200390049082
:101860000320059002A97A4802F016FAFFF785FFD7
:10187000FFF7C0FF774908800846008849F24131E8
:1018800088420DD0FFF7C5FF7249088008460088DE
:1018900045F26171884203D141F663106D490880B9
:1018A0006C48008849F2413188421DD167481830A0
:1018B000006820F00F004FF02041C1F81C010846DD
:1018C000D0F81C0120F47060C1F81C010846D0F863
:1018D0001C0140F00300C1F81C010846D0F81C01AF
:1018E00040F40070C1F81C015A48008849F24131A7
:1018F00088427DD1CF204D4908800020891C088076
:10190000C120088030200880ED20891E08806420D6
:10191000891C08800320088012200880812008800C
:10192000E820891E08808520891C088010200880F6
:101930007A200880CB20891E08803920891C0880E5
:101940002C20088000200880342008800220088095
:10195000F720891E08802020891C0880EA20891E23
:1019600008800020891C08800880C020891E08800B
:101970001B20891C0880C120891E08800120891C29
:101980000880C520891E08803020891C08800880B6
:10199000C720891E0880B720891C08803620891E30
:1019A00008804820891C08803A20891E088055201C
:1019B000891C0880B120891E08800020891C0880AD
:1019C0001A200880B620891E08800A20891C0880F9
:1019D000A2200880F220891E08800020891C08802F
:1019E0002620891E08800120891C0880E02000E054
:1019F00079E0891E08800F20891C08802A20088031
:101A000028200880082008800E20088008200880F0
:101A100054200880A9200880432008800A200880DC
:101A20000F200880002017E01A000020FE1F006C25
:101A3000160000201800002038380240000C024038
:101A4000001002400018024020010020040100A004
:101A500000140240120000200880088008800880DE
:101A6000E120891E08800020891C0880152008803C
:101A70001720088007200880112008800620088091
:101A80002B200880562008803C20088005200880F4
:101A9000102008800F2008803F20088008800F2039
:101AA00008802B20891E08800020891C088008805F
:101AB000012008803F2008802A20891E08800020FD
:101AC000891C088008800880EF2008801120891E6A
:101AD0000880782005F0D3FA2920FB4908800120EE
:101AE000FA49086098E0FA48008841F66311884294
:101AF000F8D1E220F44908801D20891C08800220CA
:101B0000088004200880642005F097FAE020EE4960
:101B100008800120891C08800A2005F0B0FAE02026
:101B2000E94908800320891C08800C2005F0A7FAE9
:101B30000120E54908800A2005F0A1FAE620E249E3
:101B400008802F20891C0880FF2008800880B02092
:101B5000891E08802020891C08800020088003201E
:101B6000088040F21F3008800120088040F2DF101A
:101B7000088000200880B420891E08800420891C69
:101B8000088040F21F400880002008802E20088036
:101B900000200880088008800880B620891E088000
:101BA0000220891C08804FF4037008800020088000
:101BB0001720088015200880002008800880F02069
:101BC000891E08800320891C08802920891E08801E
:101BD000D02008800020891C0880BE20891E088033
:101BE0000520891C0880FE20088001200880002034
:101BF000088008800880B820891E08800320891C7E
:101C0000088001200880BA20891E08800120891CD4
:101C10000880FF20FFF711FD0020FFF7DCFB4FF6E7
:101C2000FF70FFF71AFD07B000BD2DE9F04F054624
:101C30000E4617469846DDF824A04FF0000B781B9F
:101C4000401C1FFA80FB344614E021462846FFF76B
:101C50002DFCFFF7FAFA4FF0000907E09A48801CC4
:101C6000A0F800A009F101001FFA80F9D945F5DBC1
:101C7000601C84B24445E8DDBDE8F08F2DE9F84FE3
:101C800007460D4690469946DDF828B0A8EB0700B8
:101C9000401C80B20090A9EB0500401C1FFA80FA9E
:101CA000002416E0281981B23846FFF7FFFBFFF742
:101CB000CCFA002608E004FB0A603BF810008249D9
:101CC000891C0880701C86B200988642F3DB601C79
:101CD00084B25445E6DBBDE8F88F2DE9FF4F074697
:101CE00016461C46BB460C2C01D198460AE0102C27
:101CF00001D1A04606E0182C02D14FF0300801E0D7
:101D0000BDE8FF8FA6F12000C6B2002548E00C2CEC
:101D100007D106EB46006F4901EB800010F80590F3
:101D200010E0102C05D16C4800EB061010F805905F
:101D300008E0182C06D106EB4600684901EB0010BC
:101D400010F805904FF0000A24E009F0010030B1CE
:101D50006348028838460199FFF760FC05E0614856
:101D6000028838460199FFF759FC4FEA6909781C47
:101D700087B2A7EB0B0104EBD472B1EB620F05D174
:101D80005F460198401C80B2019006E00AF1010014
:101D900000F0FF0ABAF1080FD7DB00BF681CC5B21C
:101DA0004545B4DB00BFABE7F0B506460F46154628
:101DB0001C4611E022782B4639463046FFF78DFF4E
:101DC000284605EBD07106EB61018EB246480088CB
:101DD000864200DB06E0641C2078202802DB2078A5
:101DE0007E28E7DD00BFF0BD2DE9F04F04460D462B
:101DF00016461F46DDE909893948B0F800A0394880
:101E0000B0F800B03648A0F800803648A0F800903E
:101E10003B46324629462046FFF7C6FF3048A0F829
:101E200000A03048A0F800B0BDE8F08F10B5024621
:101E3000012000E050430B1EA1F10104E1B2F9D1F1
:101E400010BD2DE9FF4F81B0074690461E460E9CFF
:101E5000C3464FF0000906E00A20BBFBF0FB09F186
:101E6000010000F0FF09BBF1000FF5D1B14508DD1D
:101E70001EA3224638460299FFF796FF05B0BDE83B
:101E8000F08F002553E0A6EB0900A84232DD0F9841
:101E900060B104EBD471491001FB057188B223468F
:101EA000302200940299FFF718FF3EE004EBD47152
:101EB000491001FB057188B2234620220094029943
:101EC000FFF70BFF31E00000FE1F006CA8824242CA
:101ED000120000208EAA050802AF0508F2B405081A
:101EE0000E00002010000020160000204552524F26
:101EF00052000000701B401EC1B20A20FFF796FF7F
:101F0000B8FBF0F00A21B0FBF1F201FB120A04EB7E
:101F1000D471491001FB057188B20AF13001CAB2CF
:101F2000234600940299FFF7D8FE681CC5B2B5425B
:101F3000A9DB00BFA2E72DE9FF4F82B004460D46A2
:101F40001646DDE91189109F0E48B0F800A00E4832
:101F5000B0F800B00B48A0F800800B48A0F8009043
:101F60000F98CDE90007324629462046059BFFF72A
:101F700068FF0448A0F800A00348A0F800B006B02D
:101F8000BDE8F08F0E0000201000002000B587B0E3
:101F900000BF00200190FE48006840F00200FC49AC
:101FA00008600846006800F00200019000BF00BF12
:101FB000022002900120039002A9F64801F06CFE75
:101FC00007B000BD10B5FFF7E1FF0120F24908603E
:101FD0001C2005F032F80020F049C1F884020220EC
:101FE00005F02BF80120EE49086010BD00B587B060
:101FF00000BF00200190E648006840F00100E4497D
:1020000008600846006800F00100019000BF00BFB2
:1020100000BF002001900846006840F00200086000
:102020000846006800F00200019000BF00BF2020B9
:1020300002900120039004900320059002A9D94842
:1020400001F02AFE0220029002A9D24801F024FEEB
:10205000FFF7B8FF07B000BD00B587B000BF002094
:102060000190CB48006840F00200C949086008466A
:10207000006800F00200019000BF00BF0220029043
:102080000020039002A9C34801F006FE07B000BD7E
:1020900010B5FFF77BFF0120C1490860C249C1F8B4
:1020A00094021C2004F0C9FF0020BD4908600220F2
:1020B00004F0C3FF0020BC49C1F8940210BD10B564
:1020C0000024FFF7C9FF0120B5490860B649C1F8EF
:1020D0009402022004F0B1FFB1488038006808B1D2
:1020E000012400E000240020AB490860022004F035
:1020F000A4FF204610BD10B50020A7490860FFF7D7
:1021000045FF022004F099FF0020A449C1F8840291
:10211000022004F092FF01209F490860022004F091
:102120008CFF0020A049C1F8940210BD10B500201A
:1021300099490860FFF72AFF022004F07EFF012082
:102140009649C1F88402022004F077FF01209249E9
:102150000860022004F071FF00209349C1F8940246
:1021600010BD70B50446FFF711FF00208A490860D2
:10217000022004F062FF002513E0E00988490860AE
:102180006006040E01208849C1F89402022004F080
:1021900054FF002080490860022004F04EFF681CB4
:1021A000C5B2082DE9DB70BD70B505460024FFF708
:1021B00053FF1C2004F041FF002613E00020764965
:1021C0000860022004F039FF01207749C1F8940229
:1021D0006006040E72488038006808B1601CC4B202
:1021E000701CC6B2082EE9DB15B9FFF79FFF01E0AE
:1021F000FFF781FF204670BD70B504460D46FFF71E
:1022000047FF7020FFF7ADFFFFF759FFE0B2FFF780
:10221000A8FFFFF754FF2846FFF7A3FFFFF74FFF84
:10222000FFF7D0FE70BD70B50446FFF731FF702098
:10223000FFF797FFFFF743FFE0B2FFF792FFFFF7CB
:102240003EFFFFF725FF7120FFF78BFFFFF737FFFA
:102250000020FFF7A9FF0546FFF7B4FE284670BD32
:1022600070B506460C46002507E0711988B2FFF7E5
:10227000DAFF04F8010B681CC5B2042DF5DB70BD54
:1022800000B587B000BF002001904148006840F0D1
:1022900002003F4908600846006800F00200019013
:1022A00000BF00BF00BF002001900846006840F05A
:1022B000200008600846006800F02000019000BF80
:1022C00000BFC81402900020039001200490032056
:1022D000059002A9354801F0DFFC0120029003902F
:1022E00002A92C4801F0D8FCFFF780FE00202C4901
:1022F000091F0860192004F0C2FE01202749C1F817
:102300008002322004F0BBFE00210846FFF774FF74
:102310000121A420FFF770FF12218020FFF76CFF3E
:102320000C218820FFF768FF07B000BDF8B5002436
:1023300000251F48006800286ED10220FFF773FFB8
:102340001C4908700846067800BF62E01A4931F857
:1023500014006946FFF784FF18480078012833D13C
:102360009DF801009DF8001001F00F0100EB012025
:10237000134921F814009DF803009DF8021001F0A4
:102380000F0100EB01200F4921F8140034E0000098
:102390003038024000040240940240420080404233
:1023A000848240420000024000004042001402408B
:1023B0002C82424220000020C2C6050814000020E2
:1023C0003C0000203E0000209DF803009DF8021014
:1023D00001F00F0100EB0120C0F5F070164921F863
:1023E00014009DF801009DF8001001F00F0100EBB2
:1023F0000120124921F81400114B33F814200F4B1F
:1024000033F814100C4B33F8140000F047F8601C3C
:10241000C4B2B4429ADB0DE0002509E04FF6FF702C
:10242000054921F81500054921F81500681CC5B2B9
:10243000B542F3DBF8BD00003C0000203E00002068
:10244000CCC6050810B55948008849F24131884288
:1024500002D100F045FA07E05448008841F66311C4
:10246000884201D1FFF70CFF10BD10B54FF6FF7089
:10247000FFF7F3F81F204E4908804E4A1288123A9F
:1024800091B24D4A1288283A90B24CA31022FFF71D
:102490008BFC4FF478404649088010BD2DE9F0418F
:1024A00006460D46174600244148078000BF18E045
:1024B000281981B23046FFF790F82A1991B2721CA0
:1024C00090B2FFF78AF82A1991B2B21C90B2FFF7C6
:1024D00084F82A1991B2F21C90B2FFF77EF8601CC2
:1024E000C4B2042CE4DBBDE8F081002437E0002016
:1024F00000F08BF9334800882F49098888421EDA9A
:10250000314800882B490988884218DA2A4800880F
:1025100028382C490988884209DA26480088123868
:1025200029490988884202DAFFF79FFF07E04FF444
:1025300078422548018823480088FFF7AFFF601CD8
:10254000C4B2142094FBF0F100FB114038B91F48CD
:10255000006808B9012000E000201C490860C6E7B7
:10256000002421E0FFF7E2FE1948018812480088A4
:102570002838814208DD174801880E48008818383D
:10258000814201DDFFF771FF601CC4B2142094FB8F
:10259000F0F100FB114038B90C48006808B901207F
:1025A00000E0002009490860DCE70000120000207C
:1025B0000E0000201800002016000020436C65610A
:1025C0007200000024000020260000208C024242FD
:1025D0003C0000203E00002070B50446002500BFEE
:1025E00017E004F0800018B10120FE49086002E005
:1025F0000020FC4908606006040E0020FA490860CB
:10260000012004F01AFD0120F849C1F89402681C69
:10261000C5B2082DE5DB70BD70B506460025002467
:102620000020F1490860F249C1F88402ED49091F10
:1026300008603046FFF7D0FF062004F0FEFC0020C3
:10264000EA49C1F89402012004F0F7FC0120E649B0
:10265000086004F0F2FC0020E449C1F8940200BFD5
:1026600015E04FF6FF7000EA44040020DE490860E0
:10267000012004F0E2FC0120DC49C1F89402D948B1
:102680007C38006808B1601C84B2681CC5B2102D8B
:10269000E7DB24110120D349091F0860204670BDE3
:1026A0002DE9FE4380460027002406E04046FFF760
:1026B000B3FF2DF81400601C84B2052CF6DB002457
:1026C00016E0601C85B20FE03DF814003DF81510CF
:1026D000884207DD3DF814603DF815002DF8140020
:1026E0002DF81560681C85B2052DEDDB601C84B2E9
:1026F000042CE6DB0027012405E03DF814003844F3
:1027000087B2601C84B2042CF7DB032097FBF0F047
:1027100086B23046BDE8FE832DE9F04104460D4601
:10272000B4480078FFF7BCFF0646B3480078FFF7CF
:10273000B7FF0746322E01DB322F02DA0020BDE858
:10274000F08126802F800120F9E77FB504460D46F1
:1027500002A903A8FFF7E0FF064616B9002004B05F
:1027600070BD694601A8FFF7D7FF06460EB90020E5
:10277000F5E7BDF80400BDF80C10884206DCBDF892
:102780000C10BDF80400323081420CDBBDF80C00A7
:10279000BDF80410884236DCBDF80410BDF80C000A
:1027A000323081422FDABDF80000BDF808108842AF
:1027B00006DCBDF80810BDF80000323081420CDBA9
:1027C000BDF80800BDF8001088421CDCBDF8001000
:1027D000BDF808003230814215DABDF80C10BDF8A2
:1027E0000420881800EBD071C1F34F012180BDF89F
:1027F0000810BDF80020881800EBD071C1F34F011C
:1028000029800120ABE70020A9E710B504464FF668
:10281000FF707A4908807A4908807A480068002861
:1028200048D124B178497948FFF78FFF34E07649E1
:102830007648FFF78AFF78B37548B0F9000000EEDC
:10284000100AB8EEC00A734890ED001A6F4800886D
:1028500000EE900AF8EE600A01EE200ABCEEC00A13
:1028600010EE100A694908806B48B0F9000000EECC
:10287000100AB8EEC00A694890ED001A6248008854
:1028800000EE900AF8EE600A01EE200ABCEEC00AE3
:1028900010EE100A5C4908805C4800886049088096
:1028A000594800885F4908805F480078401C5E49AD
:1028B000087014E05C480078022807DD534800885F
:1028C0004E490880504800884D49088000205649EC
:1028D00008704FF6FF70524908805249088010BDB9
:1028E00000B587B000BF002001905048006840F05C
:1028F00001004E4908600846006800F001000190A0
:1029000000BF00BF00BF002001900846006840F0F3
:10291000020008600846006800F00200019000BF55
:1029200000BF00BF002001900846006840F0200072
:1029300008600846006800F02000019000BF00BF5A
:1029400004200290002003900120049003200590B1
:1029500002A9374801F0A0F94FF40060029002A9E3
:10296000344801F099F9032002900120039002A954
:102970002F4801F091F92020029002A92E4801F081
:102980008BF92E480078C0B190201A490870D020E9
:10299000194908709FED2A0A1E4880ED000A9FED34
:1029A000290A1E4880ED000A4FF4AE7018490880CD
:1029B0006FF01200184908804DE0D0200D490870D2
:1029C00090200D4908709FED200A124880ED000A02
:1029D0009FED1E0A114880ED000A6FF00A000C49B5
:1029E000088035E084824042940240420000404228
:1029F000008040422C0000202D00002028000020F4
:102A00002A0000202C8242423E0000203C00002090
:102A100038000020300000203A0000203400002060
:102A20002400002026000020400000203038024012
:102A30000004024000140240000002401400002084
:102A40006452BCBD7BF5893DDA9F883D3ABABA3DF8
:102A5000C01F0249088007B000BD00003A000020F6
:102A600010B586B00446142101A856F057FC3C4925
:102A70002068884246D100BF002000903948006895
:102A800040F01000374908600846006800F0100068
:102A9000009000BF00BF00BF0020009031481438F4
:102AA000006840F001002F491439086008460068AA
:102AB00000F00100009000BF00BF48150190022007
:102AC000029001200390032004900720059001A9A3
:102AD000254801F0E1F84FF4806001900220029057
:102AE00001200390032004900720059001A91E48AF
:102AF00001F0D2F803221146252000F007FF25201F
:102B000000F042FF06B010BD10B515481749086027
:102B10004FF4E1304860002114488160C1600161D8
:102B20000C21416100218161C16102F014FD10BDE1
:102B300001B54FF0FF33012269460C4802F06CFEEC
:102B400008BD70B50446204656F04CFB85B24FF0E8
:102B5000FF332A462146054802F05EFE70BD0000A4
:102B60000010014044380240000002407001002083
:102B700000217548A0F80012A0F80212A0F8041273
:102B800080F80612002007E00121704A1154032248
:102B90006E49C91C0A54401C0328F5DB70470FB46A
:102BA00030B5B7B004460D466848005D18B937B077
:102BB00030BC5DF814FB6548C01C005DA84200DA1B
:102BC000F5E700F0E7FD25908DF898508DF89940D5
:102BD0003DA8249040215A38249B3C9A56F07CF919
:102BE000002024905848B0F80402402818DB5649C9
:102BF000B1F80212481CC11700EB91618911A0EBDA
:102C000081118AB25049A1F802220846B0F80402A4
:102C1000401E81B24C48A0F80412012180F806122F
:102C20004949B1F8001201EBC101494A02EBC10068
:102C3000482225A956F040FB4349B1F80012481C30
:102C4000C11700EB91618911A0EB81118AB23E4955
:102C5000A1F800220846B0F80402401C81B23A48AC
:102C6000A0F804120DF19A003A4951F82510259A5E
:102C7000CDE900210290384850F8243037A2802155
:102C800004A856F043F904A8FFF75BFF00BF8EE7E6
:102C9000032802DA2D4AD21C11547047032801DAA6
:102CA0002A4A11547047F0B5A3B032A0FFF749FF8C
:102CB0002548B0F80252B0F80402142801DD1420AF
:102CC00002E02148B0F804020746002622E005EBA6
:102CD000C5001F4901EBC004A01D21791D4A52F80F
:102CE00021102268CDE90021029060791A4951F83B
:102CF00020301AA2802103A856F008F903A8FFF794
:102D000020FF681CC11700EB91618911A0EB8111B4
:102D10008DB2761CBE42DADB0B48B0F804021428F0
:102D200002DD19A0FFF70DFF1FA0FFF70AFF23B078
:102D3000F0BD00210448A0F80012A0F80212A0F88B
:102D4000041280F806127047B011002064000020C1
:102D5000B001002050000020440000205B25735D7E
:102D60005B2530396C756D735D5B25735D20257354
:102D70000D0A00003D3D3D204C6F672044756D708D
:102D8000203D3D3D0D0A00002E2E2E202873686F39
:102D900077696E67206C61737420323020656E74C1
:102DA00072696573290D0A003D3D3D20456E642022
:102DB0003D3D3D0D0A000000F0B593B007460C46BE
:102DC00015461E4601948DF808503F2231460DF1FC
:102DD000090056F0CAFA00218DF84810482201A9CE
:102DE000384656F069FA13B0F0BD70B50546FFF7E6
:102DF000BFFE00240AE0F448005D30B9F3A30022CE
:102E0000F7A12846FFF7D8FF70BD641C032CF2DB46
:102E1000F748B0F8040230B1F6A30022F0A128462A
:102E2000FFF7CAFFF0E7F8A30122EDA12846FFF75C
:102E3000C3FF00BFE8E770B50546FFF799FEEC4811
:102E4000B0F80462F1A203210220FFF7A8FEE848CF
:102E5000B0F80412701C814206D0F0A30022F7A142
:102E60002846FFF7A9FF70BDE148B0F8020200EB69
:102E7000C000F64901EBC0046079022806D0F4A333
:102E80000022EEA12846FFF797FFECE72079032800
:102E900006D0F3A30022E9A12846FFF78DFFE2E761
:102EA000DAA1A01D56F08CFA30B1F0A30022E3A104
:102EB0002846FFF781FFD6E7D3A30122DFA12846EA
:102EC000FFF77AFF00BFCEE710B50446FFF750FECC
:102ED00000210846FFF7E2FEBB48007830B1E7A3C7
:102EE0000022EBA12046FFF767FF10BD0121002063
:102EF000FFF7D4FEB448007830B9E9A30022E4A17A
:102F00002046FFF759FFF0E7BFA30122E0A12046CA
:102F1000FFF752FF00BFE8E710B50446FFF728FEB1
:102F200004210020FFF7B4FEA748C078042806D08B
:102F3000E1A30022E4A12046FFF73EFF10BD0321DC
:102F40000020FFF7A5FEA048C078032806D0E3A321
:102F50000022DDA12046FFF72FFFEFE7AAA3012201
:102F6000D9A12046FFF728FF00BFE7E770B5054667
:102F7000FFF7FEFD002406E02346DCA20321022029
:102F8000FFF70DFE641C052CF6DBFFF7D2FE984818
:102F9000B0F8040230B1D7A30022DBA12846FFF726
:102FA0000BFF70BD9248B0F8000218B99048B0F815
:102FB000020230B1D9A30022D3A12846FFF7FCFEBC
:102FC000EFE791A30122D0A12846FFF7F5FE00BF4D
:102FD000E7E770B50546FFF7CBFD002406E0234682
:102FE000C2A203210220FFF7DAFD641C0A2CF6DBE3
:102FF0007F48B0F804020A2806D0CDA30022CFA152
:103000002846FFF7D9FE70BD7FA30122CBA1284639
:10301000FFF7D2FE00BFF6E770B50546FFF7A8FD43
:10302000002406E02346CAA203210220FFF7B7FDD1
:10303000641C052CF6DB6E48B0F80402052806D0A7
:10304000C4A30022C6A12846FFF7B6FE70BD6EA33A
:103050000122C3A12846FFF7AFFE00BFF6E7F8B58F
:10306000054600F097FB06460020009002E000981D
:10307000401C009042F2107100988842F7DB00F08B
:1030800089FB0446B44206D2BBA30022C1A1284654
:10309000FFF792FEF8BD5CA30122BEA12846FFF710
:1030A0008BFE00BFF6E770B50546FFF761FD022114
:1030B0000020FFF7EDFD4E48B0F80442B9A204210C
:1030C0000020FFF76CFD4A48B0F80402A04206D089
:1030D000B8A30022BEA12846FFF76EFE70BDC2A2B3
:1030E00002210020FFF75BFD4148B0F80412601C8C
:1030F000814206D0C0A30022B5A12846FFF75CFE9E
:10310000ECE741A30122B2A12846FFF755FE00BF1C
:10311000E4E770B50546FFF72BFD00210846FFF7F1
:10312000BDFD3348B0F80442BBA203210020FFF7E5
:1031300036FD2F48B0F80402A04206D0BAA3002200
:10314000BFA12846FFF738FE70BD01210020FFF720
:10315000A5FDB1A203210020FFF721FD2448B0F80E
:103160000412601C814206D0BCA30022B4A12846F0
:10317000FFF722FEE8E724A30122B1A12846FFF7CA
:103180001BFE00BFE0E738B50446FFF7F1FCBCA02A
:103190007B23BDA2032100900220FFF700FD14480D
:1031A000B0F8020200EBC000284901EBC005B9A14C
:1031B000A81D56F005F930B1BAA30022BFA12046E0
:1031C000FFF7FAFD38BD85E1640000204D6F64759E
:1031D0006C65206E6F7420656E61626C65640000C2
:1031E000546573745F4C6F675F496E6974000000CB
:1031F000B0110020427566666572206E6F7420659E
:103200006D707479000000004F4B000054657374BA
:10321000206D657373616765000000004275666626
:10322000657220636F756E74206E6F7420696E63B3
:1032300072656D656E74656400000000546573749A
:103240005F4C6F675F57726974650000B0010020C2
:1032500057726F6E67206D6F64756C6500000000BB
:1032600057726F6E67206C6576656C0057726F6E73
:1032700067206D6573736167650000004D6F64754D
:103280006C65206E6F742064697361626C656400A4
:10329000546573745F4C6F675F456E61626C650067
:1032A0004D6F64756C65206E6F742072652D656E50
:1032B00061626C65640000004C6576656C206E6F21
:1032C0007420736574000000546573745F4C6F67FD
:1032D0005F5365744C6576656C0000004C657665DF
:1032E0006C206E6F7420726573657400546573741E
:1032F00020256400427566666572206E6F742063D7
:103300006C65617265640000546573745F42756634
:103310006665725F436C65617200000048656164B8
:103320002F7461696C206E6F742072657365740010
:1033300057726F6E6720636F756E74005465737497
:103340005F4275666665725F57726974650000005A
:1033500054256400436F756E742077726F6E67003A
:10336000546573745F4275666665725F4F76657209
:10337000666C6F770000000054696D657374616D51
:10338000702077656E74206261636B77617264731D
:1033900000000000546573745F54696D6573746157
:1033A0006D7000004465627567206D6573736167B9
:1033B000650000004465627567206D657373616721
:1033C00065206E6F742066696C74657265640000B8
:1033D000546573745F4C6F675F4C6576656C5F46D0
:1033E000696C7465720000005761726E696E6720C7
:1033F0006D657373616765005761726E696E6720F2
:103400006D657373616765206E6F74207265636F9D
:103410007264656400000000546F756368206D6518
:1034200073736167650000004D65737361676520A4
:103430006E6F742066696C746572656400000000CC
:10344000546573745F4C6F675F4D6F64756C655F37
:1034500044697361626C6564000000004D657373BC
:10346000616765206E6F74207265636F7264656456
:1034700020616674657220656E61626C6500000093
:1034800068656C6C6F0000005465737420256420BF
:103490002573000054657374203132332068656CE5
:1034A0006C6F00004D65737361676520666F726DA8
:1034B0006174206572726F7200000000546573744D
:1034C0005F4C6F675F4D6573736167655F466F72D1
:1034D0006D617400AFF2D0230122AFF220012046CB
:1034E000FFF76AFC00BF38BD70B50546FFF740FB2B
:1034F000002407E02346AFF20C2203210220FFF74D
:103500004EFB641C052CF5DBFFF713FC2D48B0F8CF
:10351000040230B12CA3002232A12846FFF74CFC54
:1035200070BDAFF21C3301222EA12846FFF744FCE8
:1035300000BFF5E770B58AB0002400252EA0FFF784
:1035400000FBFFF715FB33A0FFF7FBFA641C00211B
:103550000846FFF7A3FB01210020FFF79FFB32A0E5
:10356000FFF7EFFA641C04210020FFF791FB33A062
:10357000FFF7E7FA641CFFF7DCFB36A0FFF7E1FA80
:10358000641C00F007F9064638A0FFF7DAFA641C5D
:103590000C48B0F8040220B939A0FFF7D2FA641C35
:1035A00003E03DA0FFF7CDFA6D1C631940A2202176
:1035B00002A8CDE9004555F0A9FC02A8FFF7C1FA21
:1035C0000AB070BDB0110020436F756E74206E6F2D
:1035D00074207A65726F20616674657220636C6511
:1035E00061720000546573745F4275666665725F50
:1035F000436F756E740000000D0A3D3D3D2052750D
:103600006E6E696E67205465737473203D3D3D0D89
:103610000A0000005B504153535D204C6F675F49C7
:103620006E69740D0A0000005B504153535D204CDD
:103630006F675F456E61626C650D0A005B504153B8
:10364000535D204C6F675F5365744C6576656C0DF8
:103650000A0000005B504153535D20427566666569
:10366000725F436C6561720D0A0000005B5041534C
:10367000535D2054696D657374616D700D0A0000AF
:103680005B504153535D204275666665725F436FC0
:10369000756E740D0A0000005B4641494C5D204286
:1036A00075666665725F436F756E740D0A00000083
:1036B0000D0A546F74616C3A2025642020506173A8
:1036C000733A20256420204661696C3A2025640DF8
:1036D0000A000000704770B50446714800784FF446
:1036E0007A71B1FBF0F06F490968B1FBF0F528463B
:1036F00000F099F908B1012070BD102C07D200220A
:103700002146501E00F002F96748046001E00120E4
:10371000F2E70020F0E710B56448006840F400705C
:10372000624908600846006840F48060086005202F
:1037300000F0DAF80F20FFF7CEFFFDF749FC00207C
:1037400010BD704710B54FF0FF3059490860002098
:103750000860401E091D086000200860401E544992
:103760001039086000200860401E091D0860002014
:103770000860401E091D086000200860FDF729FC54
:10378000002010BD4B480068454909780844494964
:1037900008607047474800687047434800687047B2
:1037A00070B5044600253E480078A04206D03C484B
:1037B00004703D480068FFF78EFF0546284670BD3F
:1037C00037480078704770B50446FFF7E3FF0646B8
:1037D0002546681C10B132480078054400BFFFF749
:1037E000D9FF801BA842FAD370BD4FF0E0200069DA
:1037F00020F002004FF0E021086170474FF0E02018
:10380000006940F002004FF0E021086170472A484B
:1038100070472A480068000C704728480068C0F3C9
:103820000B0070472548406840F00100234948607C
:1038300070472248406820F00100204948607047E6
:103840001E48406840F002001C49486070471B4811
:10385000406820F0020019494860704717484068E6
:1038600040F004001549486070471448406820F053
:1038700004001249486070470120114908607047F0
:1038800000200F49086070470E48006870470D48D7
:10389000001D006870470B48083000687047000042
:1038A000740000200400002070000020003C024052
:1038B000203802406C00002000060701002004E0D0
:1038C00000042742107AFF1F10B5002804DB0A0706
:1038D000130EEC4A135406E00A07140EEA4A00F0ED
:1038E0000F031B1FD45410BD00BF00F00702E64BAE
:1038F0000C3B19684FF6FF031940E44B0B4343EAB6
:103900000221E14B0C3B196000BF70472DE9F05FCD
:1039100080460D461646002700F0AEF907463946A8
:103920002A46334601F00700C0F1070ABAF1040F36
:1039300002D94FF0040A01E0C0F1070AD14600F1B4
:10394000040ABAF1070F02D24FF0000A01E0A0F119
:10395000030AD4464FF0010A0AFA09FAAAF1010A49
:103960000AEA020A0AFA0CFA4FF0010B0BFA0CFBF6
:10397000ABF1010B0BEA030B4AEA0B04214640466C
:10398000FFF7A2FFBDE8F09F01460846002809DBCB
:1039900000F01F0301229A4043099B0003F1E0233A
:1039A000C3F8002100BF704710B501460846002843
:1039B00017DB00F01F0301229A40B54B440943F87E
:1039C000242000BF00BF00BFBFF34F8F00BF00BF68
:1039D00000BF00BF00BF00BFBFF36F8F00BF00BFBD
:1039E00000BF00BF10BD00BF00BF00BF00BF00BFD1
:1039F000BFF34F8F00BF00BF00BFA3480C38006863
:103A000000F4E060A1490843001D9F490C3908609B
:103A100000BF00BF00BFBFF34F8F00BF00BF00BF9C
:103A200000BF00BFFDE770B504462546681EB0F133
:103A3000807F01D301200FE0681E4FF0E021486134
:103A40000F214FF0FF30FFF73FFF00204FF0E02144
:103A5000886107200861002070BD00BF00BF00BF63
:103A6000BFF35F8F00BF00BF00BF87480C30006806
:103A700020F4803084490C310860002082497C3178
:103A80000860704740F001017F4A7C3211607E4936
:103A90000C31096841F480317B4A0C32116000BF5F
:103AA00000BF00BFBFF34F8F00BF00BF00BF00BF0C
:103AB00000BF00BFBFF36F8F00BF00BF00BF7047E4
:103AC0004178714A803211600178F9B1121D416864
:103AD0001160017B0907C27A41EA0261827A41EAF8
:103AE000C241427B41EA8241827B41EA4241C27B40
:103AF00041EA0241427A41EA0221027A41EA420164
:103B000002781143604A8832116005E000215E4A64
:103B100084321160121D1160704710B500F0ACF8CE
:103B200010BD2DE9F04304462046002803DB554F25
:103B30003F5C3F0907E0544F00F00F0CACF1040C60
:103B400017F80C703F093D460E4606F00700C0F11D
:103B50000708B8F1040F02D94FF0040801E0C0F1E2
:103B60000708C44600F10408B8F1070F02D24FF06D
:103B7000000801E0A0F10308474625FA07F84FF0D6
:103B8000010909FA0CF9A9F1010908EA0908C2F8C2
:103B900000804FF0010808FA07F8A8F1010808EAC8
:103BA0000508C3F8008000BFBDE8F08310B50146EA
:103BB0000846002808DB00F01F0301229A40344B1E
:103BC0008033440943F8242000BF10BD10B50146DE
:103BD000084600280EDB2E4A8032430952F8232083
:103BE00000F01F040123A3401A400AB1012202E0A1
:103BF000002200E00022104610BD10B50146084624
:103C0000002807DB00F01F0301229A40214B4409E2
:103C100043F8242000BF10BD10B501460846002817
:103C20000EDB1C4A8032430952F8232000F01F04A7
:103C30000123A3401A400AB1012202E0002200E061
:103C40000022104610BD042808D14FF0E021096978
:103C500041F004014FF0E022116107E04FF0E02154
:103C6000096921F004014FF0E022116170477047AB
:103C700010B5FFF7FCFF10BD03480C380068C0F317
:103C80000220704700E400E018ED00E00000FA05B3
:103C900080E100E080E200E0F8B502460B46002536
:103CA000002400200021DCE0012606FA01F51E6850
:103CB00006EA0504AC4273D15E68022E02D05E684B
:103CC000122E13D1CF0802F1200656F827004E0716
:103CD000F70E0F26BE40B0434F07FF0E1E69BE40D1
:103CE0003043CF0802F1200646F8270010684F0045
:103CF0000326BE40B0431E7906F003064F00BE40C7
:103D0000304310605E68012E08D05E68022E05D038
:103D10005E68112E02D05E68122E13D190684F009B
:103D20000326BE40B0434F00DE68BE403043906083
:103D3000506801268E40B0431E79C6F300168E40AF
:103D400030435060D0684F000326BE40B0434F0060
:103D50009E68BE403043D0605E6806F08056B6F183
:103D6000805F7DD100BF00260096AD4E366846F4D8
:103D70008046AB4F3E603E46366806F4804600966D
:103D800000BF00BFA74E8F0856F827008E07370FD9
:103D90000F26BE40B043A44EB24202D1002624E01A
:103DA0005EE0A24EB24201D101261EE0A04EB24218
:103DB00001D1022619E09F4EB24201D1032614E040
:103DC0009D4EB24201D104260FE09C4EB24201D179
:103DD00005260AE09A4EB24201D1062605E0994E28
:103DE000B24201D1072600E008268F073F0FBE40F0
:103DF00030438C4E8F0846F82700934E3068A0431E
:103E00005E6806F48036B6F5803F00D120438E4EC2
:103E10003060361D3068A0435E6806F40036B6F5A3
:103E2000003F00D12043884E361D3060361D30687B
:103E3000A0435E6806F48016B6F5801F00D12043CB
:103E4000814E08363060361D3068A0435E6806F447
:103E50000016B6F5001F00D120437B4E0C363060B3
:103E6000491C1029FFF420AFF8BDF0B50C46002521
:103E700000220023002192E0012606FA01F504EA5F
:103E80000502AA427ED1674E8F0856F827308E076A
:103E9000370F0F26BE403340634EB04201D100269B
:103EA00023E0624EB04201D101261EE0604EB042D6
:103EB00001D1022619E05F4EB04201D1032614E081
:103EC0005D4EB04201D104260FE05C4EB04201D1FC
:103ED00005260AE05A4EB04201D1062605E0594EA9
:103EE000B04201D1072600E008268F073F0FBE40F1
:103EF0009E4222D18E07370F0F2606FA07F3494E4E
:103F00008F0856F827609E43464F4FEA910C47F8BA
:103F10002C604D4E366896434B4F3E603E1D3668D2
:103F200096433F1D3E603E1D366896433F1D3E60F2
:103F30003E1D366896433F1D3E6006684FEA410CC1
:103F4000032707FA0CF7BE430660CF0800F12006EE
:103F500056F827604F074FEAD76C0F2707FA0CF780
:103F6000BE434FEAD10C00F1200747F82C60866869
:103F70004FEA410C032707FA0CF7BE4386604768F7
:103F8000012600E00AE08E40B7434760C6684FEA6A
:103F9000410C032707FA0CF7BE43C660491C1029E1
:103FA000FFF46AAFF0BD024613690B400BB101206C
:103FB00000E0002070470AB1816101E00B048361D9
:103FC000704742690A408A4202D10A04826100E0D5
:103FD0008161704708B502464FF480300090009828
:103FE000084300900098D061D1610098D061D069F9
:103FF0000090D06900F4803008B1002008BD012095
:10400000FCE7704710B504460F48143000682040A4
:1040100028B10D48143004602046FFF7F2FF10BDB0
:1040200044380240083801400000024000040240C9
:1040300000080240000C0240001002400014024040
:1040400000180240001C0240003C01400020704764
:10405000F8B504460CB90120F8BD207800F0010045
:10406000002874D0F948006800F00C0004280DD036
:10407000F648006800F00C00082813D1F348001F30
:10408000006800F48000B0F5800F0BD1EF480838CD
:104090000068C0F34040002859D06068002856D11D
:1040A0000120D9E700BF6068B0F5803F08D1E7483C
:1040B0000838006840F48030E449083908601EE0A0
:1040C0006068B0F5A02F0DD1E0480838006840F4D2
:1040D0008020DE49083908600846006840F48030D6
:1040E00008600CE0D9480838006820F48030D749CF
:1040F000083908600846006820F48020086000BF86
:10410000606890B1FFF746FB054606E0FFF742FB0B
:10411000401B642801D903209EE7CC48083800687A
:10412000C0F340400028F1D011E0FFF733FB054613
:1041300006E0FFF72FFB401B642801D903208BE723
:10414000C24808380068C0F340400028F1D1207808
:1041500000F0020002285FD1BC48006800F00C00AB
:1041600058B1BA48006800F00C0008281CD1B748C4
:10417000001F006800F48000B0B9B4480838006837
:10418000C0F3400020B1E068012801D0012063E7BE
:10419000AE480838006820F0F800216940EAC10004
:1041A000AA490839086037E0E06800B30120A8494F
:1041B0000860FFF7EFFA054606E0FFF7EBFA401B51
:1041C000022801D9032047E7A04808380068C0F357
:1041D00040000028F1D09D480838006820F0F80021
:1041E000216940EAC10099490839086014E00020BB
:1041F00097490860FFF7CEFA054606E0FFF7CAFACE
:10420000401B022801D9032026E79048083800689F
:10421000C0F340000028F1D1207800F00800082801
:104220002CD16069A8B101208A490860FFF7B2FA71
:10423000054606E0FFF7AEFA401B022801D903202D
:104240000AE782486C300068C0F340000028F1D0D3
:1042500014E000207F490860FFF79CFA054606E05D
:10426000FFF798FA401B022801D90320F4E67748AB
:104270006C300068C0F340000028F1D1207800F0D5
:104280000400042870D1002670483830006800F01F
:10429000805090B900BF002000906C483830006812
:1042A00040F080506949383108600846006800F0E5
:1042B0008050009000BF00BF01266748006800F4EE
:1042C0008070B0B96448006840F48070624908604A
:1042D000FFF760FA054606E0FFF75CFA401B02288C
:1042E00001D90320B8E65C48006800F4807000281B
:1042F000F2D000BFA068012808D154486830006897
:1043000040F001005149683108601DE0A0680528AF
:104310000DD14E486830006840F004004B496831C8
:1043200008600846006840F0010008600CE047485B
:104330006830006820F00100444968310860084690
:10434000006820F00400086000BFA068A8B1FFF773
:1043500021FA054609E0FFF71DFA401B41F28831BA
:10436000884202D9032077E626E0384868300068A2
:10437000C0F340000028EED013E0FFF70BFA05462B
:1043800008E0FFF707FA401B41F28831884201D963
:10439000032061E62D4868300068C0F34000002823
:1043A000EFD1012E07D129483830006820F0805025
:1043B00026493831086000BFA069B8B323480068B7
:1043C00000F00C0008285ED0A069022846D1002029
:1043D0001F490866FFF7DEF9054606E0FFF7DAF940
:1043E000401B022801D9032036E618480838006827
:1043F000C0F340600028F1D1D4E907010843616AA5
:1044000040EA81110122A06AC2EB500041EA00415A
:104410002C20005D41EA00600C49091F0860012062
:104420000B490866FFF7B6F9054607E02DE0FFF7F0
:10443000B1F9401B022801D903200DE603480838D2
:104440000068C0F340600028F1D01EE00838024048
:1044500000004742800E4742007000400020F949AA
:104460000866FFF797F9054606E0FFF793F9401B4A
:10447000022801D90320EFE5F3480068C0F340604B
:104480000028F2D101E00120E6E50020E4E52DE975
:10449000F047002400250026A146EB4808300068BC
:1044A00000F00C0020B1042805D008283AD105E01E
:1044B000DFF8989339E0DFF8989336E0E248001D82
:1044C000006800F03F04E048001D006800F4800030
:1044D00078B1DF48DC49091D0968C1F38811A0FBE8
:1044E0000170014622460023384654F05AFC054626
:1044F0000EE0D648D449091D0968C1F38811A0FB14
:104500000170014622460023384654F04AFC054615
:10451000CD48001D0068C0F30140401C4600B5FBBB
:10452000F6F902E0DFF8249300BF00BF4846BDE87B
:10453000F08770B504460D460CB9012070BDC54822
:10454000006800F00F00A84209D2C2490D70084669
:10455000006800F00F00A84201D00120EEE72078AB
:1045600000F00200022823D1207800F00400042883
:1045700007D1B5480830006840F4E050B24908312E
:104580000860207800F00800082807D1AE480830FD
:10459000006840F46040AC4908310860AA4808301F
:1045A000006820F0F000A1680843A74908310860BE
:1045B000207800F00100A0B36068012806D1A2486D
:1045C0000068C0F34040A8B90120B7E7606802283E
:1045D00002D06068032806D19B480068C0F34060A1
:1045E00040B90120AAE798480068C0F3400008B924
:1045F0000120A3E794480830006820F003006168B8
:104600000843914908310860FFF7C4F8064609E0FD
:10461000FFF7C0F8801B41F28831884202D903209D
:104620008CE708E088480830006800F00C006168FA
:10463000B0EB810FECD18748006800F00F00A84272
:1046400009D984490D700846006800F00F00A8429F
:1046500001D0012072E7207800F00400042809D17D
:1046600079480830006820F4E050E1680843764952
:1046700008310860207800F0080008280AD1724844
:104680000830006820F46040216940EAC1006E49AA
:1046900008310860FFF7FBFE6B4908310968C1F378
:1046A00003116D4A515CC8406C4908600F20FFF748
:1046B00012F8002042E770B586B006460C46154653
:1046C00056BB00BF002000905F483030006840F0CB
:1046D00001005D49303108600846006800F00100C3
:1046E000009000BF00BF88150190022002900320B7
:1046F000049000200390059001A95948FFF7CCFAD7
:1047000051480830006820F0EC6044EA0501084395
:104710004D490831086029E000BF002000904A4858
:104720003030006840F004004749303108600846E6
:10473000006800F00400009000BF00BF4815019021
:10474000022002900320049000200390059001A90C
:104750004448FFF7A1FA3C480830006820F0784050
:1047600044EAC501084338490831086006B070BD05
:1047700001203449C864704700203249C86470473A
:1047800036480068704700B5FFF7FAFF2E49083138
:104790000968C1F38221344A515CC84000BD00B5AC
:1047A000FFF7EEFF284908310968C1F342312E4A6C
:1047B000515CC84000BD0F2101602349096801F424
:1047C0008021B1F5802F03D14FF4A02141600CE08E
:1047D0001D49096801F48031B1F5803F03D14FF4E0
:1047E0008031416001E0002141601749096801F012
:1047F000010111B10121C16001E00021C160124934
:104800000968C1F3C40101610F497031096801F001
:104810000401042902D1052181600AE00A497031AE
:10482000096801F0010111B10121816001E000215D
:10483000816005497431096801F00101B1B10121BC
:10484000416115E000004742003802400024F400B6
:1048500000127A00003C024076AA050804000020FD
:10486000000002400008024086AA050800214161BC
:104870002F49096801F08071B1F1807F02D10221D6
:10488000816101E0012181612949091D096801F463
:104890008002C2612649091D096801F03F020262D7
:1048A0002349091D0968C1F3881242622049091D84
:1048B000096801F4403101F58031CA0B82621C495C
:1048C000091D0968C1F30362C26270470F220260CA
:1048D000174A0832126802F003024260144A083292
:1048E000126802F0F0028260114A0832126802F483
:1048F000E052C2600E4A0832126802F46042D208E6
:1049000002610C4A126802F00F020A607047704799
:1049100010B507480C30006800F08000802805D1F1
:10492000FFF7F5FF802002490E31087010BD00002E
:1049300000380240003C0240014608781038182335
:10494000B0FBF3F2FE48805CC865032A05D908680D
:104950006FF30900001D886503E008686FF3090024
:104960008865886D7047014600208A6A8B69CBB9DB
:1049700032B1012A0DD0022A03D0032A10D10EE051
:1049800000BFCB6A03F08073B3F1807F00D10120B8
:1049900007E0CB6AB3F1C07F00D1012001E000E065
:1049A00000BF34E08B69B3F5005F1AD132B1012A40
:1049B00007D0022A03D0032A11D10AE000BF012048
:1049C0000EE0CB6A03F08073B3F1807F00D1012049
:1049D00006E0CB6AB3F1C07F00D1012000E000BF48
:1049E00015E032B1012A05D0022A04D0032A0CD1E5
:1049F00003E000BF00BF012008E0CB6A03F0807332
:104A0000B3F1807F00D1012000E000BF00BF7047FC
:104A10002DE9F04104460025FEF7BCFE074614B917
:104A20000120BDE8F081606A00B100BF00BF002036
:104A300084F8340000BF022084F835002068006844
:104A400020F00100216808600AE0FEF7A3FEC01B09
:104A5000052805D920206065032084F83500E0E7AB
:104A60002068006800F001000028EED12068056889
:104A7000B4480540D4E901010843E16808432169CD
:104A8000084361690843A1690843E1690843216A51
:104A900008430543606A042803D1D4E90B010843A5
:104AA0000543206805602068456925F00705606AB0
:104AB0000543606A04280DD1A06A0543E06A48B145
:104AC0002046FFF750FF28B140206065012084F8A0
:104AD0003500A6E7206845612046FFF72DFF064612
:104AE00094F85C103F208840B06000206065012091
:104AF00084F83500002094E770B504460CB9012015
:104B000070BD94F83500022800D1F9E720680068EC
:104B100020F00100216808600020216808602168F9
:104B20004860216888602168C86021680861212088
:104B3000216848612046FFF7FFFE05460020E0633C
:104B400020646064A064E064206594F85C103F20F9
:104B50008840A8600020606584F8350000BF84F8B4
:104B6000340000BF00BFCBE730B50468246824F4EC
:104B7000802405682C60046863608468402C04D13C
:104B80000468A2600468E16003E00468A16004684E
:104B9000E26030BD2DE9F04104460D4616461F4641
:104BA0004FF0000800BF94F83400012802D1022021
:104BB000BDE8F081012084F8340000BF94F835008E
:104BC000012811D1022084F83500002060653B46A1
:104BD000324629462046FFF7C7FF2068006840F0AC
:104BE00001002168086006E000BF002084F834005E
:104BF00000BF4FF002084046DAE72DE9F0470446CF
:104C00000D4616461F464FF00008D4F8589000BFD6
:104C100094F83400012802D10220BDE8F087012079
:104C200084F8340000BF94F8350001282BD102200D
:104C300084F83500002060653B4632462946204610
:104C4000FFF792FF94F85C103F208840C9F80800F5
:104C50002068006840F016002168086020684069FC
:104C600040F0800021684861206C28B1206800680D
:104C700040F00800216808602068006840F00100EA
:104C80002168086006E000BF002084F8340000BFFF
:104C90004FF002084046C0E770B50446A56DFEF728
:104CA00079FD064694F83500022808D0802060651A
:104CB00000BF002084F8340000BF012070BD2068D0
:104CC000006820F01600216808602068406920F024
:104CD000800021684861206C08B9A06C28B1206868
:104CE000006820F00800216808602068006820F053
:104CF0000100216808600FE0FEF74CFD801B0528CD
:104D00000AD92020606500BF002084F8340000BF6D
:104D1000032084F83500D1E72068006800F0010026
:104D20000028E9D194F85C103F208840A86000BFBB
:104D3000002084F8340000BF012084F8350003E02F
:104D4000D6C605083F8010F00020B7E7014691F86D
:104D50003500022803D080204865012070470520D7
:104D600081F835000868006820F001000A681060CA
:104D70000020F3E72DE9F05F0446884617464FF020
:104D8000000AFEF707FD834694F83500022809D093
:104D90008020606500BF002084F8340000BF01203F
:104DA000BDE8F09F2068006800F4807020B14FF4E7
:104DB000807060650120F3E7B8F1000F05D194F829
:104DC0005C10202000FA01F904E094F85C10102037
:104DD00000FA01F9A56D2E6842E0781C90B12FB160
:104DE000FEF7D8FCA0EB0B00B8420BD92020606581
:104DF00000BF002084F8340000BF012084F8350093
:104E00000320CDE72E6894F85C10082088403040DD
:104E100040B1606D40F00100606594F85C100820BE
:104E20008840A86094F85C1001208840304040B170
:104E3000606D40F00200606594F85C1001208840CD
:104E4000A86094F85C1004208840304040B1606D48
:104E500040F00400606594F85C1004208840A8606D
:104E600006EA090020B9606D00F001000028B4D006
:104E7000606DA0B1606D00F0010080B12046FFF7C9
:104E80000BFF94F85C1030208840A86000BF002021
:104E900084F8340000BF012084F8350080E7B8F1C1
:104EA000000F0DD194F85C1030208840A86000BF3E
:104EB000002084F8340000BF012084F8350004E0AD
:104EC00094F85C1010208840A860504668E7F8B558
:104ED000044600200090C64800684FF41651B0FB0D
:104EE000F1F7A56D2E6894F85C10082088403040DA
:104EF00098B12068006800F0040070B12068006874
:104F000020F004002168086094F85C1008208840B4
:104F1000A860606D40F00100606594F85C100120AD
:104F20008840304068B12068406900F0800040B19E
:104F300094F85C1001208840A860606D40F0020089
:104F4000606594F85C1004208840304068B12068A7
:104F5000006800F0020040B194F85C100420884022
:104F6000A860606D40F00400606594F85C1010204B
:104F70008840304078B32068006800F0080050B3E3
:104F800094F85C1010208840A8602068006800F445
:104F9000802080B12068006800F4002028B9206CCF
:104FA000C8B12046216C884715E0A06C98B1204616
:104FB000A16C88470FE02068006800F4807028B971
:104FC0002068006820F0080021680860206C10B19B
:104FD0002046216C884794F85C102020884030409F
:104FE000002865D02068006800F0100000285FD01D
:104FF00094F85C1020208840A86094F835000528BB
:1050000028D12068006820F0160021680860206818
:10501000406920F0800021684861206C08B9A06CCC
:1050200028B12068006820F008002168086094F822
:105030005C103F208840A86000BF002084F8340046
:1050400000BF012084F83500206D10B12046216D8D
:105050008847F8BD2068006800F4802080B120688F
:10506000006800F4002028B9606C10B12046616C23
:1050700088471DE0E06BD8B12046E16B884717E018
:105080002068006800F4807068B92068006820F02B
:1050900010002168086000BF002084F8340000BFC1
:1050A000012084F83500E06B10B12046E16B8847A1
:1050B000606D38B3606D00F00100F0B1052084F838
:1050C00035002068006820F001002168086000BFFA
:1050D0000098401C0090B84200D905E020680068A4
:1050E00000F001000028F3D100BF00BF002084F8C9
:1050F000340000BF012084F83500E06C10B1204678
:10510000E16C884700BFA4E710B50346002400BF48
:1051100093F83400012801D1022010BD012083F84A
:10512000340000BF93F83500012814D1062910D2AD
:10513000DFE801F0030507090B0DDA630AE01A64E2
:1051400008E05A6406E09A6404E0DA6402E01A6552
:1051500000E000BF00E0012400BF002083F834001D
:1051600000BF2046D9E70246002300BF92F8340072
:10517000012801D102207047012082F8340000BFCD
:1051800092F83500012824D107291FD2DFE801F069
:1051900004070A0D101316000020D06318E0002049
:1051A000106415E00020506412E0002090640FE0CD
:1051B0000020D0640CE00020106509E00020D063DE
:1051C000106450649064D064106501E0012300BF56
:1051D00000E0012300BF002082F8340000BF184621
:1051E000C9E7014691F8350070470146486D7047A0
:1051F000040000202DE9F04104462068006920F4F5
:105200004050E1680843216808612169A0680843AB
:1052100061690843E16940EA01052068C06849F214
:105220000C61884328432168C8602068406920F4E5
:105230004070A169084321684861E069B0F5004FFA
:105240007ED1FE492068884203D0FD49206888420B
:105250005DD1FFF7A4FA00EBC00101EB001061681B
:105260004900B0FBF1F06421B0FBF1F00601FFF75B
:1052700096FA00EBC00101EB001061684900B0FB39
:10528000F1F7FFF78CFA00EBC00101EB0010616849
:105290004900B0FBF1F06421B0FBF1F000EBC0017C
:1052A00001EB0010A7EB8000322101EBC00064216C
:1052B000B0FBF1F000F0F80006EB4006FFF76FFAE4
:1052C00000EBC00101EB001061684900B0FBF1F791
:1052D000FFF765FA00EBC00101EB001061684900BF
:1052E000B0FBF1F06421B0FBF1F000EBC00101EB89
:1052F0000010A7EB8000322101EBC0006421B0FB5D
:10530000F1F000F0070030442168886020E1FFF7E9
:105310003AFA00EBC00101EB001061684900B0FBF4
:10532000F1F06421B0FBF1F00601FFF72CFA00EB7D
:10533000C00101EB001061684900B0FBF1F700E02B
:1053400045E0FFF720FA00EBC00101EB00106168B7
:105350004900B0FBF1F06421B0FBF1F000EBC001BB
:1053600001EB0010A7EB8000322101EBC0006421AB
:10537000B0FBF1F000F0F80006EB4006FFF703FA8F
:1053800000EBC00101EB001061684900B0FBF1F7D0
:10539000FFF7F9F900EBC00101EB0010616849006B
:1053A000B0FBF1F06421B0FBF1F000EBC00101EBC8
:1053B0000010A7EB8000322101EBC0006421B0FB9C
:1053C000F1F000F00700304421688860C0E09B499C
:1053D0002068884203D09A49206888425CD1FFF750
:1053E000DEF900EBC00101EB001061688900B0FB41
:1053F000F1F6FFF7D4F900EBC00101EB0010616892
:105400008900B0FBF1F06421B0FBF1F000EBC001CA
:1054100001EB0010A6EB8000322101EB00106421AB
:10542000B0FBF1F000F0F006FFF7B9F900EBC001B6
:1054300001EB001061688900B0FBF1F06421B0FB62
:10544000F1F006EB0016FFF7AAF900EBC00101EB43
:10545000001061688900B0FBF1F7FFF7A0F900EBDD
:10546000C00101EB001061688900B0FBF1F064211C
:10547000B0FBF1F000EBC00101EB0010A7EB8000E6
:10548000322101EB00106421B0FBF1F000F00F00BD
:105490003044216888605BE0FFF775F900EBC001DC
:1054A00001EB001061688900B0FBF1F6FFF76BF9C2
:1054B00000EBC00101EB001061688900B0FBF1F066
:1054C0006421B0FBF1F000EBC00101EB0010A6EB92
:1054D0008000322101EB00106421B0FBF1F000F0FC
:1054E000F006FFF750F900EBC00101EB0010616816
:1054F0008900B0FBF1F06421B0FBF1F006EB00167F
:10550000FFF741F900EBC00101EB00106168890071
:10551000B0FBF1F7FFF737F900EBC00101EB00102A
:1055200061688900B0FBF1F06421B0FBF1F000EBA1
:10553000C00101EB0010A7EB8000322101EB00104D
:105540006421B0FBF1F000F00F0030442168886066
:10555000BDE8F081704710B504460CB9012010BDBC
:10556000A06900B100E000BF94F8390028B900201C
:1055700084F838002046FDF773FA242084F83900B7
:105580002068C06820F400502168C8602046FFF7FA
:1055900031FE2068006920F490402168086120688D
:1055A000406920F02A00216848612068C06840F402
:1055B00000502168C8600020E063202084F8390092
:1055C00084F83A000020CAE710B504460CB901205F
:1055D00010BD94F8390028B9002084F8380020461E
:1055E000FDF73EFA242084F839002068C06820F4D2
:1055F00000502168C8602046FFF7FCFD2068006964
:1056000020F49040216808612068406920F0220061
:10561000216848612068406940F0080021684861BD
:105620002068C06840F400502168C8600020E06332
:10563000202084F8390084F83A0003E0001001408B
:10564000001401400020C3E770B504460D460CB9B4
:10565000012070BD94F8390028B9002084F8380082
:105660002046FDF7FDF9242084F839002068C06841
:1056700020F400502168C8602046FFF7BBFD206879
:10568000006920F40060216808612068406920F00A
:105690002A00216848612068006940F48040216840
:1056A00008612068006920F02000216808612068F6
:1056B00000692843216808612068C06840F40050F0
:1056C0002168C8600020E063202084F8390084F855
:1056D0003A000020BDE770B504460D4616460CB9E9
:1056E000012070BD94F8390028B9002084F83800F2
:1056F0002046FDF7B5F9242084F839002068C068F9
:1057000020F400502168C8602046FFF773FD206830
:10571000006920F49040216808612068406920F009
:105720002A00216848612068006920F00F00216884
:105730000861206800692843216808612068C06802
:1057400020F400602168C8602068C0683043216888
:10575000C8602068C06840F400502168C86000201C
:10576000E063202084F8390084F83A000020B8E78C
:10577000704710B504460CB9012010BD242084F8F0
:1057800039002068C06820F400502168C8602046B5
:10579000FFF7EEFF0020E06384F8390084F83A0058
:1057A00000BF84F8380000BF00BFE6E72DE9F041F4
:1057B00004460D4617469846069E21E0701CF8B137
:1057C0002EB1FDF7E7FFA0EB0800B04218D9206822
:1057D000C06820F4D0702168C8602068406920F05B
:1057E000010021684861202084F8390084F83A00DB
:1057F00000BF002084F8380000BF0320BDE8F0811E
:10580000206800682840A84201D1012000E0002063
:10581000B842D3D00020F1E72DE9F84304460D4605
:1058200016461F464FF0000994F8390020285CD135
:1058300005B116B90120BDE8F88300BF94F838001F
:10584000012801D10220F6E7012084F8380000BFCA
:105850000020E063212084F83900FDF79BFF81469A
:10586000A684E6842BE0E08C401EE084A068B0F5BE
:10587000805F16D14B460022802120460097FFF71B
:1058800095FF08B10320D6E7A846B8F80000C0F39A
:10589000080021684860206908B9AD1C0FE06D1C44
:1058A0000DE04B460022802120460097FFF77EFF47
:1058B00008B10320BFE715F8010B21684860E08CB0
:1058C0000028D0D14B460022402120460097FFF708
:1058D0006DFF08B10320AEE7202084F8390000BF37
:1058E000002084F8380000BFA5E70220A3E72DE9D7
:1058F000F84304460D4616461F464FF0000994F83B
:105900003A00202860D105B116B90120BDE8F8831E
:1059100000BF94F83800012801D10220F6E70120E9
:1059200084F8380000BF0020E063222084F83A00A9
:10593000FDF730FF8146A685E68539E0E08D401E03
:10594000E085A068B0F5805F1BD14B460022202186
:1059500020460097FFF72AFF08B10320D6E7A846A4
:10596000206938B920684068C0F30800A8F8000032
:10597000AD1C1DE020684068C0B2A8F800006D1C96
:1059800016E04B460022202120460097FFF70EFF2D
:1059900008B10320BAE7206920B92068406805F8FB
:1059A000010B05E02068406800F07F0005F8010B5E
:1059B000E08D0028C2D1202084F83A0000BF0020EA
:1059C00084F8380000BFA1E702209FE710B5034626
:1059D00093F83900202823D101B10AB9012010BD64
:1059E00000BF93F83800012801D10220F7E7012019
:1059F00083F8380000BF19629A84DA840020D863E3
:105A0000212083F8390000BF002083F8380000BF50
:105A10001868C06840F080001C68E0600020DEE785
:105A20000220DCE710B5034693F83A0020282FD176
:105A300001B10AB9012010BD00BF93F83800012858
:105A400001D10220F7E7012083F8380000BF9962F6
:105A50009A85DA850020D863222083F83A0000BFB7
:105A6000002083F8380000BF1868C06840F48070D8
:105A70001C68E0601868406940F001001C686061C3
:105A80001868C06840F020001C68E0600020D2E781
:105A90000220D0E770470168C96821F4907102685C
:105AA000D1600168496921F001010268516120213A
:105AB00080F83A1070470168C96821F0C001026897
:105AC000D160202180F83910704770B50646002556
:105AD000B46B20684069C0F3C01594F839002128E0
